:020000001628C0
:0E0006008312031321088A00200882000800DC
:1000140003208A110A128000840AA00A0319A10A83
:08002400F003031D0A28080087
:10002C00FF30831603138600831286018316870123
:10003C0006308312870083168801831288017C3076
:10004C00831692000530831292000C3097003C30DE
:10005C009D000608773A031D3A2860308800FA3074
:10006C009500FA309B00402877308600060803196B
:10007C004028880106086F3A031D4A286030880022
:10008C00C8309500FA309B0006087B3A031D5428B3
:10009C0060308800FA309500C8309B002F28552816
:02400E000A2F77
:00000001FF
